:1020000000800020555600003D5600003D5600005F
:1020100000000000000000000000000000000000C0
:102020000000000000000000000000003D5600001D
:1020300000000000000000003D560000A95600000E
:102040003D5600003D5600003D560000E53E0000B4
:102050003D5600003D5600003D5600004156000030
:102060003D56000065550000855500003D560000B6
:102070003D5600003D560000755500003D560000DD
:102080003D5600003D5600003D5600003D56000004
:10209000000000003D5600003D5600003D56000087
:1020A0003D5600003D5600003D5600003D560000E4
:1020B0000000000010B5064C2378002B07D1054B1B
:1020C000002B02D0044800E000BF0123237010BDA4
:1020D000900200200000000048150100044B10B5DC
:1020E000002B03D00349044800E000BF10BDC046E8
:1020F000000000009402002048150100704710B550
:102100000400083000F053FF200010BDE12170B53D
:102110004902104804F0EEFB0F4D280000F00CF9C6
:102120000E4C200000F052FE2000002100F0ECFEDA
:1021300001220A210A4801F097FD0A49200000F017
:102140004DFE094C200001F011FBE968200001F070
:1021500097FB70BDD44F0020AC0200202047002028
:10216000C0030020FD2000003047002010B50649C4
:10217000064C8B794A792000097900F061FE200035
:1021800000F050FE10BDC046AC02002020470020E9
:10219000F0B591B03822002102A80AF0A2F93E4C15
:1021A000200001F0AFFC002807D10A21200001F037
:1021B0008DFCFFF7DBFF11B0F0BD384B38481988B4
:1021C000002964D100F05AFD0427364800F0BEFE15
:1021D000FA20800003F0ACFA304C334D216A28001D
:1021E00002F0AAF8280002F021FAA269002361692E
:1021F000280002F09FF92A4E0100300000F03CFD5B
:10220000280002F0FFF8280002F0DCFA636A3A00C6
:102210000193E36928000093244902AB02F088FA95
:102220002B6802AA009321493B00300000F09EFD7C
:102230001F4802F027F8011C300000F0FDFC19488F
:1022400000F096FE1B4B30001A6AD96900F0A8FC1A
:10225000194F3000390000F05FFD0600174D184996
:10226000280003F09AFD31000A22280003F0F7FD50
:102270000023144D01932100009533003A000648D5
:1022800001F044FC2900200000F0FEF991E7012153
:1022900000F0F4FC082798E7C0030020AC020020FF
:1022A000200300202047002020050020D402002029
:1022B0001005002030470020FC040020D44F0020EF
:1022C000BC000100FC020020802210B50C4C17233A
:1022D000D2001121200002F01FF80A4A0A4920000A
:1022E00005F03EFC094801F0FFFF094801F0CEFB74
:1022F000084800F013F8084800F038FC10BDC0464C
:102300002005002000000020FF2000001005002014
:10231000C0030020AC02002020030020FA2300218B
:1023200010B504001B018170C1704362282228305F
:102330000AF0D7F8200010BDFA23F0B50400A9B0C8
:102340001B01282200210BA80A930AF0CAF82E4D7F
:1023500002AA6B692969280002F038FD231D4C226E
:1023600002A9180001930AF0B3F8A77C274E002FAA
:1023700042D12749300003F021FDFA213C224901D6
:10238000616202210123E2602432228162631832F9
:10239000E161A263153130322162E26345391832BE
:1023A00061612264BE311832A16262643531183233
:1023B000E162A26430311832A380A3742163E26425
:1023C000211DBC3AA7716774A76115A80AF080F8AF
:1023D0006A692969280002F0E7FC15AA6B69296976
:1023E000280002F091FC0B49300003F0D6FCA179E3
:1023F0000A22300003F04DFD0A22616B300003F029
:102400002EFD29B0F0BDC04608470020D44F002063
:10241000E3020100EF02010070B50E000C001E3651
:10242000084D21780A22280003F02FFD01340649C7
:10243000280003F0B2FCB442F2D1280003F0B6FC4D
:1024400070BDC046D44F002060040100F8B51700ED
:102450008E5C89184D78104C7D3E7D3D46618561CE
:102460000E49200003F099FC31000A22200003F0FD
:10247000F2FC0B49200003F090FC29000A22200006
:1024800003F0EDFC0749200003F087FC39000A2225
:10249000200003F0E4FCF8BDD44F0020CB02010083
:1024A000D6020100DB02010070B516008D5C0B4CFA
:1024B0006D00C5600A49200003F06FFC29000A2264
:1024C000200003F0CCFC0749200003F066FC31003B
:1024D0000A22200003F0C3FC70BDC046D44F002088
:1024E000AF020100DB02010070B515008E5C0A4CE2
:1024F00006620A49200003F050FC31000A22200045
:1025000003F0ADFC0649200003F047FC29000A2235
:10251000200003F0A4FC70BDD44F0020A2020100F3
:10252000DB02010070B515008E5C0A4CC6610A49D9
:10253000200003F032FC31000A22200003F08FFC5F
:102540000649200003F029FC29000A22200003F09C
:1025500086FC70BDD44F002007030100DB020100A0
:1025600070B516008B5C89184D781B020A4C1D4310
:1025700045620A49200003F010FC29000A222000CD
:1025800003F069FC0649200003F007FC31000A2231
:10259000200003F064FC70BDD44F0020BC02010099
:1025A000DB020100F7B58C18174D2378019017490D
:1025B0002800009303F0F1FB28000A22009903F0A1
:1025C0004EFC0025009B9D421DDA6778A378019A96
:1025D0003F020D4E1F43AB00D3189F620C493000E1
:1025E00003F0DBFB0A222900300003F034FC094928
:1025F000300003F0D2FB0A223900300003F02FFC38
:1026000001350234DEE7F7BDD44F00200B03010093
:10261000010301006004010070B5050000203B24A7
:102620000600944246419C424041304224D0172942
:1026300022D8124CAB7129716A711149200003F044
:10264000ACFB0A222979200003F01FFC0D4E20006C
:10265000310003F0A2FB0A226979200003F015FC87
:102660003100200003F099FBA9790A22200003F031
:102670000CFC200003F09AFB70BDC046D44F002034
:1026800077030100550501004022F0B50B789DB09D
:102690001A40079220221A40029210221A400392F6
:1026A00008221A40049204221A40059201221A407C
:1026B000069201228A565BB206000D0001920224A6
:1026C000002B10DA434F4449380003F066FB210029
:1026D0000A22380003F0C3FB2B79EA78A97830008E
:1026E000FFF79AFF0334029B002B09D03B4939487E
:1026F00003F064FB220029003000FFF713FF0134D0
:10270000039B002B09D03649324803F057FB2200C7
:1027100029003000FFF724FF0234049B002B09D06E
:1027200030492C4803F04AFB220029003000FFF713
:10273000DBFE0234059B002B09D02B49254803F012
:102740003DFB220029003000FFF7AEFE0134019B63
:10275000002B09DA25491F4803F030FB220029002D
:102760003000FFF773FE0234079B002B0ED0194F89
:102770001F49380003F011FB0A222100380003F042
:102780006EFB220029003000FFF70CFF069B002B98
:1027900014D018490F4803F011FB311D4C2209A831
:1027A00009F096FE144C62692169200002F0FCFADF
:1027B000636909AA2169200002F0A6FA2900300005
:1027C000FFF72AFE1E220021280009F08AFE1DB014
:1027D000F0BDC046D44F00200002010014020100E9
:1027E0002B02010042020100570201006C020100AD
:1027F000860201009202010008470020038801338D
:102800000380704710B54C220249034802F064FA75
:1028100010BDC04600010100084700200430C37FFE
:102820000A203F2B01D001D8013870470B205F2BC5
:10283000FBD00130F9E70B00010010B51731082279
:10284000180009F045FE10BD807D704770B5050089
:102850000C0001F06BFA002810D0CC2C08D003D863
:10286000552C0CD0002009E0EC2C01D0F02CF9D133
:1028700000222100280001F0B6FA012070BD2900D5
:102880002800173101F0DFFAF7E770B505001400F2
:102890001E00FFF7DBFF002814D04E2C0AD005D80D
:1028A000442C09D0482C07D000200BE0B42C01D0D8
:1028B000BE2CF9D1002200E032002800210001F0F6
:1028C00092FA012070BDF8B5040025000023BE2255
:1028D00055211F352700FFF7D8FF2E00283720008D
:1028E00001F09FFA28700135BD42F8D1300008216F
:1028F00001F0DEFA0834E37F181A43425841C0B2AF
:10290000F8BD0300F7B533331E780400002E58D10C
:10291000FFF79CFF002854D035000096200001F0FE
:102920004BFA01900700200001F046FA019B002BB2
:1029300006D0002804D00023323423703000FEBDBE
:10294000EB08E3181A0007219C46019B2A32184322
:10295000C0B229401278002824D1200032300078FB
:10296000A8422AD02BD3170001230F411F4026D0A5
:102970000120634688402A3302431A70013539002A
:102980002000EDB201F0FDF9402DC7D16A462300C9
:10299000127832331A70009B0126002BCED13334CB
:1029A0002670CBE7019B002BE2D1012063468840D3
:1029B0002A3382431A700027E0E70127D8E7009501
:1029C000F3E700266686B9E7F8B50E00F0210500AA
:1029D000FFF73CFF00281BD00024280001F0ECF991
:1029E0000700280001F0E8F9002F01D000280FD1DE
:1029F000E308F15C07232340194101230134194006
:102A00002800E4B201F0BDF9402CE6D1012000E03D
:102A10000020F8BD70B504000D00FFF7D5FF0028B9
:102A200001D1002070BD200008222900173009F0D4
:102A30004FFD2000FFF747FF0028F2D02000FFF7EE
:102A4000EDFE230028331870B42200235521200006
:102A5000FFF71BFF200001F0AFF92934207001209F
:102A6000E0E710B5F0210400FFF74BFF002804D089
:102A7000210020002A31FFF7CDFF10BD10B5040062
:102A800001F0FAF90023B4222375A3752385638628
:102A9000CC212000FFF7F9FE200001F08DF96075D0
:102AA0002000FFF7DEFF00280AD02000FFF7B6FE67
:102AB000237D834200D22075A37D0133A375EFE708
:102AC000200010BD10B50400002A05D0200001F040
:102AD00073F90028FAD010BD093908000329FAD883
:102AE00006F0CAFC0206080B5E2002F021FEF2E7A7
:102AF000BC20FAE77820FF30F7E70148F5E7C04649
:102B0000EE02000070B5050029352B7804005A420A
:102B100053415521DBB24422FFF7B7FE013D6A78ED
:102B200020002978FFF7CEFF2000FFF7CCFE2A789F
:102B3000E37F0134E07F0A2A11D00B2A11D0092A41
:102B400001D1023A93430002C01800B209F00EFB13
:102B50000022054B08F0FEFC09F0C6FB70BD032205
:102B6000F0E70122EEE7C0460000B03F70B5002557
:102B7000040045608560C560056145618561290087
:102B800028221C3009F0ADFC2000290050224830DA
:102B900009F0A7FC230098331D60200070BD0000E1
:102BA000F7B50400081C2049019206F085FE1F4974
:102BB00007F0F4F9051C09F045FB06000F00281C7E
:102BC000002106F051FE0022194B002822D03000CF
:102BD000390007F099FD09F093FA1649A0600198B1
:102BE00006F06AFE114907F0D9F9051C09F02AFB25
:102BF00006000F00281C002106F036FE00220C4BB8
:102C000000280CD03000390007F07EFD09F078FA7A
:102C10006060F7BD3000390008F00EFFDBE73000E0
:102C2000390008F009FFF1E70000B64200247449BA
:102C30000000E03F00003543F8B50400081C0D1CFF
:102C400009F000FB06000F00281C002106F00CFE16
:102C50000022084B002808D03000390007F054FD4E
:102C600009F04EFA6430E060F8BD3000390008F039
:102C7000E3FEF5E70000E03F016170470170704737
:102C800083681B0E8B5483688A181B1453708368E7
:102C90001B1293708368D37043681B0E13714368D3
:102CA0001B14537143681B12937143680820D3713E
:102CB000704783691B128B548369891802204B70FB
:102CC000704710B5029CD8056400C00F204388549B
:102CD000891802204B7010BDF0B5060014000025C5
:102CE00085B0039102927369AB4210DDAB00F71817
:102CF000FB18986CD96C09F003FA0090A2B2FB693A
:102D000003993000FFF7DDFF01352418EBE7029B44
:102D1000E41AE0B205B0F0BD002370B50B70037883
:102D200006000D00012B1ED17F332B70337801225A
:102D3000002B04D129003000FFF7A2FF421CF368EA
:102D4000941CAB543169AB185970A2B22900300001
:102D5000FFF7AFFF041929003000A2B2FFF7BCFF54
:102D60000019C0B270BD4023DFE7000070B5040059
:102D700016001C309A001D0009F0AAFB200031004B
:102D8000EA00483009F0A4FB0E49049807F006F960
:102D90000021061C06F068FD00280BD0301C09F04D
:102DA00051FA0022084B07F0AFFC09F0A9F9A06125
:102DB000656170BD301C09F045FA0022024B08F035
:102DC0003BFEF2E70000C8420000E03F10B50248B9
:102DD00002F0DCF810BDC0460048002070B50400C9
:102DE0000D000E480E4902F0E9FF2000002101F01D
:102DF000E1F9002320001A00190001F0E1F8002396
:102E0000200019001A0001F027F92000032101F029
:102E100077F82900200001F087F870BDD44F00201A
:102E20003F03010010B504000349044802F0C6FF47
:102E3000200001F07FF810BD22030100D44F0020D4
:102E4000F8B51D00002317000E0004001A00190039
:102E500001F0B6F82B003A003100200001F04AF9E9
:102E60000E4C0F49200002F098FF0A22310020008A
:102E700003F00BF80B4E2000310002F08EFF3900FA
:102E80000A22200003F001F83100200002F085FF43
:102E900029000A22200002F0FCFFF8BDD44F0020D8
:102EA000670301005505010010B50649064802F008
:102EB00085FF0649064802F081FFC82002F038FC71
:102EC00010BDC04612030100D44F00201F030100B3
:102ED0000049002010B50749074802F06FFF074975
:102EE000074802F06BFFC82002F022FC054802F000
:102EF0002DF910BD92030100D44F00201F030100E3
:102F0000004900200048002070B50E480D000E4911
:102F100002F054FF00242300123BDBB2012B07D93F
:102F20000121200002F01AFE0121200002F046FEDD
:102F300001341A2CEFD1002D03D129000D2002F00D
:102F40003DFE70BDD44F00203003010010B506498E
:102F5000064802F033FF0121262002F0FFFD012187
:102F6000262002F02BFE10BD54030100D44F002098
:102F700010B50649064802F021FF0121262002F083
:102F8000EDFD0021262002F019FE10BD7E03010098
:102F9000D44F002010B5044C200000F09FFF002308
:102FA0006360A360E36010BD204700207047704756
:102FB000F0B597B00792002208931CAB1B780691DE
:102FC00015931DAB1B7808990D93089B01395B087D
:102FD00000938C461300624500DA8CE000230C93CA
:102FE00001330B9300230E9309930023984C009315
:102FF0000194159B0C9A934200D106E10B9B00248F
:103000005B009BB214930023049305940023914C1E
:103010000293039400230A930A9B0B9A934200D1D4
:10302000C8E01C00089B9C4200D392E00B9B1D193A
:10303000ADB2069BED005B190F931A685B681092A6
:10304000119310981199079B5D19029A039B08F040
:1030500081FA2E686F68049A059B129013913000D4
:10306000390008F077FA02000B001298139908F063
:10307000E3FC029A039B129013913000390008F090
:1030800069FA049A059B06000F001098119908F040
:1030900061FA02000B003000390007F035FB069B97
:1030A000E6009F1910901191129A139B3868796865
:1030B00008F0C2FC0F9B18605960079B9E1930688E
:1030C0007168109A119B08F0B7FC129A139B286044
:1030D00069603868796807F017FB109A119B3860AF
:1030E00079603068716807F00FFB149B3060716085
:1030F000E418A4B296E793421FD90699069CD00023
:103100000F18D90066183C687D68029403953468EE
:1031100075683C607D60029C039D346075600D9C09
:10312000002C0AD1079C61182018046845680E68B5
:103130004F68066047600C604D6000998B4203D376
:103140005B1A9BB24908F9E75B1801329BB292B255
:1031500041E7029A039B0098019908F0FBF9049A51
:10316000059B04000D000E98099908F0F3F9020080
:103170000B002000290008F05FFC049A059B060064
:103180000F000098019908F0E5F9029A039B0400EA
:103190000D000E98099908F0DDF92B00220007F0C8
:1031A000B3FA0A9B0490059101339BB20A930296ED
:1031B000039731E7009A019B0020264908F03CFC68
:1031C0000022254B08F0C6F904F01CFD00220E90E9
:1031D0000991204B0098019907F096FA1E4B0022A6
:1031E00008F0B8F904F00EFD0D9B00900191012B41
:1031F00005D1802212069446099B634409930C9BD7
:1032000001330C93149B0B93F3E60D9B012B1CD005
:10321000089B069CDE00A319079D0093009B9C421F
:1032200013D0089808F0A2FF02000B0006000F0060
:103230002068616807F084FD03C43200286869686B
:103240003B0007F07DFD03C5E8E717B0F0BDC046C1
:103250000000F0BF0000F03F0000E03FF0B50C00C0
:103260001500DB0085B0CB180193019B9C4218D060
:1032700022686368C0CD1000190008F06BF93200B5
:10328000029003913B003000390008F063F902001E
:103290000B000298039907F037FA04F0B3FC03C45B
:1032A000E3E705B0F0BD0000F0B58BB0089310ABBC
:1032B0001B78100003920993049108F091FFEA4BE8
:1032C000002208F0B9FB039B009001915B1005936D
:1032D00000230293029B059A934200DB24E218002C
:1032E00008F07EFF009A019B04000D0007F028FD06
:1032F000089B0600581E0F00082800D9A4E106F01C
:10330000C5F809001B0053007E00C200F0002C012C
:1033100068018C01D54AD64B300008F01BF904F047
:103320002BFCD44AD44B08F015F902000B00D3480B
:10333000D34908F081FB10E0CC4ACD4B300008F0B7
:1033400009F904F019FC02000B000020C64908F03E
:1033500073FBCA4ACA4B08F0FDF804000D00029B3B
:10336000DF00049BDF19029B386879685E1C039BB1
:103370009E1B049BF6009E19099B012B00D066E161
:1033800002000B002000290008F0E4F838607960A2
:103390002200306871682B0008F0DCF8029B306076
:1033A000716001339BB294E7002200980199B54BFC
:1033B00008F0D0F802000B002000290008F03CFBC8
:1033C000002200230D00040006F00AFA00280ED0A7
:1033D00022002B002000290007F096F9009A019B9B
:1033E00007F0AEFC02000B0000209F49A1E78023FC
:1033F0001B06ED1822002B0020002900ECE79B4A59
:103400009B4B300008F0A6F804F0B6FB9E4A04007F
:103410000D009E4B3000390008F09CF804F0ACFB26
:103420009B4A069007919B4B3000390008F092F8B8
:1034300004F0A2FB984A994B06000F0020002900D7
:1034400008F088F802000B009548964908F0F4FA55
:10345000954A04000D0006980799944B08F07AF8F5
:1034600002000B002000290007F04EF904000D00B7
:103470008F4A904B3000390008F06CF802000B00C6
:103480002000290055E7794A794B300008F062F8AE
:1034900004F072FB7C4A04000D007C4B30003900C4
:1034A00008F058F804F068FB834A844B06000F00CC
:1034B0002000290008F04EF802000B0080488149E6
:1034C00008F0BAFA04000D007F4A804B3000390042
:1034D00008F040F802000B002000290007F014F962
:1034E0003BE7624A624B300008F034F804F044FBDA
:1034F000654A04000D00654B3000390008F02AF8D9
:1035000004F03AFB624A06900791624B30003900A2
:1035100008F020F804F030FB6D4A6E4B06000F00F7
:103520002000290008F016F802000B006A486B49D9
:1035300008F082FA6A4A04000D0006980799694B60
:1035400008F008F802000B002000290007F0DCF862
:10355000654A04000D00654B8CE7444A444B30003B
:1035600007F0F8FF04F008FB474A04000D00474B42
:103570003000390007F0EEFF04F0FEFA444A0690EE
:103580000791444B3000390007F0E4FF04F0F4FAEF
:10359000574A584B06000F002000290007F0DAFFB9
:1035A00002000B005448554908F046FA544A0400FA
:1035B0000D0006980799534B07F0CCFF02000B0053
:1035C0002000290007F0A0F84F4A04000D004F4BDF
:1035D00050E7264A264B300007F0BCFF04F0CCFA37
:1035E000294A04000D00294B3000390007F0B2FFD2
:1035F00004F0C2FA464A474B06000F00200029009B
:1036000007F0A8FF02000B004348444908F014FAF1
:10361000434A04000D00434B58E7002200980199EB
:10362000184B07F097FF06000F0002000B00200068
:10363000290008F001FA32003B0007F081FB02008C
:103640000B0007F087FFCDE60024074D87E6220038
:103650002B0007F075FB38607960220030687168D4
:103660002B0007F06DFB99E60000F03F68A1745451
:10367000FB211940713D0AD7A370DD3F48E17A1460
:10368000AE47E13F0000E03F2CBB1E54FB21294028
:103690000E79577F7CD93240B9E00CFE7E31DF3F96
:1036A0002AA73D25E7C4D63FABB184B53176C23FEA
:1036B000DEE8633E20D0893FB9FC87F4DBD7DF3FEB
:1036C000BCE82B483316DB3F2B6A300DC347B43FB1
:1036D0003B191C25AF4EDF3F04B97A04ED44D73FB8
:1036E000A13193A8177CC13F189EF24300CB853FC0
:1036F0008EAF3DB32440DF3FF6285C8FC2F5D63F46
:10370000BD18CA897615C23FB2632310AFEB873F5D
:10371000BD7ED29A30ABE03F8984A570F3FCD13FE7
:1037200052CCE6165F59C93F0BB0F0BD0020012313
:103730000A0002411A4202D10130C0B2F8E77047D4
:10374000F0B51D0085B00AAB0E0029001F780400FB
:103750000392FFF7EBFF019700902B00039A3100D3
:103760002000FFF725FC05B0F0BD0000962110B544
:103770008901024803F0BEF810BDC046D44F0020B6
:1037800010B5084C0849200002F018FB074920003A
:1037900002F014FBC82001F0CBFF0549200002F025
:1037A0000DFB10BDD44F0020E503010060040100B3
:1037B000EF03010010B5064C0649200002F0FEFAA6
:1037C0000549200002F0FAFAC82001F0B1FF10BD4F
:1037D000D44F0020FD030100600401001B4B73B5B2
:1037E000186806F007FF1A4906F000FA194906F0B2
:1037F00007FD194B051C186806F0FCFE144906F07D
:10380000F5F9164906F0FCFC154C061C154920007C
:1038100002F0D4FA1449200002F0BFFA281C08F084
:1038200011FD052502000B000095200002F0F2FBBF
:103830000E49200002F0B1FA301C08F003FD00959B
:1038400002000B00200002F0EEFB73BDCC4700200D
:103850000050C3470000B642D04700200000354367
:10386000D44F00208B080100CF030100DE030100CC
:1038700010B5024800F0FCFF10BDC04654470020C0
:10388000F0B585B00C000500FFF794FF01F01AFFBA
:10389000FA239B0063436D4C03906D492000029313
:1038A00002F07BFA0A220299200002F0D8FA01F015
:1038B00009FF039B0026C01A029B984218D3654B50
:1038C00065491E60654B20001E6002F077FAAAE091
:1038D000200002F099FFC7B23900200002F061FA1F
:1038E00039005F4801F050F9002800D1300006008F
:1038F000200002F061FF0028EAD1002ED7D02A0074
:103900002900574E2B1D300020321C3101F0B8F930
:103910002B002A00290008330C323000103101F04E
:1039200098F95049200002F049FA4F49200002F06E
:1039300034FA4E4BEE691B68301C191C029305F0DB
:103940006FFF002800D00026EE614949301C05F0C9
:10395000B3FF484906F022FB039008F073FC060011
:103960000F000398002105F07FFF0022424B002842
:1039700061D03000390006F0C7FE08F0C1FB354BBE
:10398000010018600A22200002F065FA3B4920007D
:1039900002F003FA2E6A0298311C05F041FF00285C
:1039A00000D000262E623649301C05F085FF3149D3
:1039B00006F0F4FA029008F045FC06000F000298A9
:1039C000002105F051FF00222B4B002838D0300099
:1039D000390006F099FE08F093FB204B0A2218608C
:1039E0000100200002F03BFA1E49200002F0E6F937
:1039F0002449200002F0D1F9E86908F023FC0626EA
:103A000002000B000096200002F004FB1E4920007B
:103A100002F0C3F9286A08F015FC009602000B00BA
:103A2000200002F000FB2800FFF7AAFE2800FFF7A5
:103A3000D5FE05B0F0BD3000390007F0FDFF9CE772
:103A40003000390007F0F8FFC5E7C046D44F00202A
:103A50009D030100CC470020BD030100D04700209A
:103A6000544700208B080100C9030100F005010044
:103A70000000B6420050C3470000E03FB70301001A
:103A800000003543D8030100DE03010010B5040037
:103A9000013021220B49FF3008F01AFD20002230AE
:103AA00011220949FF3008F013FD23000A22FC33DC
:103AB0009A6300232F32FF32A3543A22FF322000B0
:103AC000A35410BDFE0401001F05010070B50A00DB
:103AD0000500002107489C2401F048FB6400021EF9
:103AE00028550549054800D1054902F067F9285DC8
:103AF00070BDC04600480020B1040100D44F002032
:103B0000D90401009C235B00C05C7047F0B5140031
:103B10001F0085B0009036480E00FFF7C5F9354DFF
:103B20000A233A002100280001F0A0FA0190300099
:103B3000FEF764FE304C3149200002F02EF9318846
:103B40000A22200002F08BF92D49200002F036F9FC
:103B5000019B002B49D0802200215200009808F0E0
:103B6000C0FC802202AB9E1D280033005200009949
:103B700001F090F9051E32D02249200002F00DF923
:103B80000A222900200002F06AF91F49200002F0F1
:103B900004F90023F15E0A22200002F060F91B4EB6
:103BA0002000310002F00AF92000194902F0F5F86E
:103BB0000024114FA5420BDD009B1022195D380037
:103BC00002F049F9009B0A9A1B5D13550134F0E796
:103BD000380002F0EBF83100380002F0EFF804484A
:103BE000FFF778F9019805B0F0BD0A492000F4E725
:103BF0002047002000480020D44F00200A04010084
:103C000021040100620401006E0401007804010037
:103C10008B04010095040100F8B5802504006D00B7
:103C20002A00002108F05DFC0D4F2A000123380016
:103C3000210001F0DBF90B4E2100300002F0ADF85D
:103C40002A000021200008F04CFC2A003800012343
:103C5000210001F0EBF93000210002F09EF8F8BDE0
:103C600000480020D44F0020F8B50500294C0F0073
:103C7000200001F08BF92848FFF716F92800FFF71C
:103C8000CBFF2B000022223311002000FF3301F074
:103C9000B9F800226B1C1100FF33200001F010FC6A
:103CA0002000012101F0A2FA3A23FF33E95C1B4E08
:103CB000200001F073FB20000122002101F0A2FB93
:103CC000321C2000002101F037FB2000144A0121A2
:103CD00001F032FB2000134A022101F02DFB321CBF
:103CE0002000002101F0F6FA002220000E4901F028
:103CF000C1FA2000002101F0A7FA2000002101F004
:103D00008DFA20000E2101F05FFB39002800FFF73B
:103D1000DDFEF8BD0048002020470020660659441B
:103D200033135944002059440060594410B50368C6
:103D3000426872B6536062B67D2020240138C0B25A
:103D400000281DD021000139FDD1116A1942F5D09A
:103D500072B65361936062B6F02149010139FDD119
:103D600072B68C215360C9000139FDD1106A184028
:103D700043425841C0B262B6CD235B01013BFDD145
:103D800010BD0CC8C9070CD572B6A0215A619A6043
:103D90000139FDD19A6162B6DC239B00013BFDD164
:103DA000704772B682215A61C9009A600139FDD10B
:103DB0009A6162B65023F1E70368426872B6302117
:103DC000936053610139FDD1A02153600139FDD1C8
:103DD000106A62B6D4229200013AFDD11840431E07
:103DE0009841C0B27047F7B504000F0008260125BE
:103DF0000192290039404B1E99412000C9B26D0043
:103E0000013EFFF7BEFFEDB2002EF2D1019B002B69
:103E100006D172B6636822685A600CCC5A6162B6E9
:103E2000F7BDF8B507000826002501243800FFF784
:103E3000C3FF002800D025436400013EE4B2002EF9
:103E4000F4D12800F8BD70B50C00002255212600E1
:103E50000500FFF7C8FF083621780022280001344A
:103E6000FFF7C1FFB442F7D170BD002383748360B4
:103E7000C36003827047000070B50D00040000218C
:103E8000280001F06BFE18216943074A531858684F
:103E90000123834023608B56044ADB019B18636037
:103EA0002000FFF7E2FF70BD9C08010000440041C4
:103EB00030B5030041180F240020074A8B420AD076
:103EC0001D78013368400500000925401018555D34
:103ED000007C6840F2E730BD30050100002303702C
:103EE00070470000044B10B51B68002B00D09847AA
:103EF0000122024B1A7210BDD4470020001400406A
:103F0000037810B5002B0BD00724064B21401A7FF5
:103F10000800A2431100014319779A7AD209FCD113
:103F200010BDC04600140040014B19607047C046E8
:103F3000D44700200423034A11690B43136130BFA7
:103F40007047C04600ED00E0037810B5002B0BD0A1
:103F50003F24064B21401A690800A2431100014387
:103F600019619A7AD209FCD110BDC04600140040F4
:103F70000378002B0BD03F20054B08401A690549F8
:103F800080011140014319619A7AD209FCD170472E
:103F9000001400403FF0FFFF0378002B0BD01F20E0
:103FA000054B08401A690549000311400143196196
:103FB0009A7AD209FCD1704700140040FF0FFEFF2F
:103FC00070B51600027804000D00002A0AD019000E
:103FD000FFF7BAFF31002000FFF7CAFF29002000D9
:103FE000FFF7DAFF70BD00000378002B0BD01F2015
:103FF000054B08401A690549400411400143196105
:104000009A7AD209FCD1704700140040FFFFC1FF2B
:104010000378002B0BD00F20054B08401A69054987
:1040200080051140014319619A7AD209FCD1704789
:1040300000140040FFFF3FFC0378002B09D0054A25
:10404000880613699901890901431161937ADB0993
:10405000FCD170470014004070B51D0003780400C7
:104060001600002B09D0FFF7BFFF31002000FFF73B
:10407000CFFF29002000FFF7DFFF70BD037810B5E8
:10408000002B0BD03F24064B21409A690800A24325
:104090001100014399619A7AD209FCD110BDC04642
:1040A000001400400378002B0BD03F20054B084044
:1040B0009A69054980011140014399619A7AD209B0
:1040C000FCD17047001400403FF0FFFF0378002B45
:1040D0000BD01F20054B08409A6905490003114089
:1040E000014399619A7AD209FCD1704700140040CB
:1040F000FF0FFEFF70B51600027804000D00002AC5
:104100000AD01900FFF7BAFF31002000FFF7CAFFFD
:1041100029002000FFF7DAFF70BD0000094B0A4AB2
:104120009A605A7852B2002AFBDB084A5A605A78E1
:1041300052B2002AFBDB064A5A805A78D209FCD1D7
:104140007047C046000C0040020400000205110048
:10415000044200000221044B1A888A431A809A7A8A
:10416000D209FCD17047C046001400400222044B23
:1041700019880A431A809A7AD209FCD17047C0463E
:10418000001400400122044B19880A431A809A7ACD
:10419000D209FCD17047C046001400400121044BF5
:1041A0001A888A431A809A7AD209FCD17047C0468D
:1041B000001400402023F7B500262A4A0F00916919
:1041C00005000B439361284B284A294C9A82B74239
:1041D0000BD1284B3E001A7870231A4205D0238851
:1041E0001B0702D50126236901932800FFF796FFDC
:1041F0002800FFF7AFFF2800FFF7C4FF63881E4ABF
:10420000134063801D4B2380A37ADB09FCD1C021BE
:104210001B4A08331360890053581B021B0A535072
:104220000123E27913430722E371237F934323772A
:10423000A37ADB09FCD12800FFF798FF2800FFF7DD
:10424000ADFF002F0BD1002E09D0019B002B06D013
:104250002361A37ADB09FCD101332B70F7BD8423E2
:10426000DB03F5E70004004000080040CE06000034
:104270000014004038040040FFBFFFFF080A0000A0
:1042800000E100E037B50F4D04002800FEF7DCFA2E
:10429000002814D02800FEF735FC0B4DA0600B4918
:1042A000280001F07AFDA06807F0CCFF0B00022186
:1042B00002000091280001F0B6FEA0683EBD04484F
:1042C000FCE7C046D8470020D44F0020500501002D
:1042D0000000C0C010B50121262001F03FFC0121E3
:1042E000262001F06BFC10BD10B50400FFF7F2FFB3
:1042F000642001F01DFA21000248FEF79CFA20001C
:1043000010BDC046D847002010B50F210148FEF768
:10431000B5FB10BDD8470020F8B504000F0016000B
:104320001D000830FEF742FEA762A663E562092081
:1043300001F044FB2000F8BD70B50C000600064DEE
:104340000649280001F029FD28000A22210001F079
:1043500086FDF46270BDC046D44F002057050100B1
:10436000F0B5002502272E0087B005910192019B30
:104370009D4231DA1B4C22002378BB432370537ECD
:10438000DB09FCD1A188184889B20291A178C9B291
:104390000391E178C9B20491A18801408020A180F5
:1043A000A188C0000143A180A370E37023783B4340
:1043B0002370537EDB09FCD16B46187D01F068FB4E
:1043C0006B461B893618A3806B461B7B0135A37097
:1043D0006B461B7CE370CAE70199300005F0EAF8F0
:1043E00007B0F0BD00400042FFF8FFFF10B50C0021
:1043F00001F06EF9A04203D2002001F099F9F7E72D
:1044000010BD0000F0B50500060001270400836B15
:1044100085B0083558369AB231003B002800009725
:10442000FEF742FF094B3100E3180393A36B039A95
:1044300028009BB20097FFF783F9A36B039A9BB206
:1044400031002800FEF70AFF05B0F0BD582000003B
:10445000F0B50022002706000400836B87B00591A9
:104460000763426302935836029BBB4223DD3068E8
:10447000716881230022DB0507F0DEFA03910491C5
:10448000002200230399050005F0AAF900280AD0AC
:104490002800039907F034FE4043236B01371818B6
:1044A00020630836E0E7802212069446049B280029
:1044B00063441900EEE70299206B05F07BF8206356
:1044C00007F054FE03F09EFB07F00EFFEC21606343
:1044D000890505F063FD03F0F5FB07F0B3FE00224C
:1044E000114B07F037F8040005980D0007F0AAFEFD
:1044F00002000B002000290006F006F907F0F4FE88
:104500000A4D041C0A49280001F047FC201C07F052
:1045100099FE0B00022102000091280001F083FDAA
:10452000201C07B0F0BDC04600003440D44F00202E
:1045300075050100F0B50E0085B0191C1700FFF7D6
:1045400087FF204D041C2049280001F026FC0A2288
:104550003100280001F083FC1C49280001F01DFCFB
:104560000A223900280001F07AFC201C06F022F80B
:10457000FF233A000093310000230390002402F04F
:1045800003F9A04212DBFF233A000093310023001D
:10459000039802F0F9F8FF34A04207DC00940023EE
:1045A0003A003100039802F0EFF8040008492800AF
:1045B00001F0F3FB0A222100280001F050FC20004A
:1045C00005B0F0BDD44F002079050100840501003D
:1045D0008F05010070B504000D0001F079F8FA2193
:1045E000401B890004F05CFF06F04EF8A66B051C2A
:1045F0002064300005F0FEFF291C05F0F7FA0A4997
:1046000005F0CCFCFC21E063890505F0C7FC051C26
:10461000F00F8019401005F0EDFF011C281C05F07B
:10462000E5FA206070BDC04600007A44F8B5040089
:1046300001F04EF800252600070025655836A36BCB
:10464000AB421EDD01F044F8236DE26AC01AE0645B
:10465000A16A2000FFF784FE07F088FD8023306008
:104660007160002200219B01F31819605A60E16C0F
:10467000636C21652000C918FFF7B8FE01350836C4
:10468000DDE739002000FFF7A5FFF8BDF0B5150004
:104690000126002485B0C900029343180393AE425B
:1046A0000EDC039BF700DF19200007F05FFDBA6DF9
:1046B000FB6D06F029F807F023FD01360400EEE754
:1046C000002D0EDD039BEF00DF1B200007F04EFDE9
:1046D000BA6DFB6D06F018F807F012FD013D0400FD
:1046E000EEE77C2500230095029A1900200002F0D5
:1046F0004BF8002813DB00230095029A19002000D4
:1047000002F042F8A8420DDC0023029A190000953D
:10471000200002F039F807F029FD05B0F0BD0020B7
:104720000021FAE700200149F7E7C04600005F409A
:10473000F0B507001D00002687B004910592059B87
:104740009E4234DA049AB300D358380003930C9A8B
:104750000D9B0399FFF79AFF164C28606960164974
:10476000200001F01AFB0A220399200001F073FBDC
:104770001249200001F011FB039805F03BFF396856
:1047800005F00CFC07F05EFD0B0002210200009119
:10479000200001F03FFC0A49200001F0FEFA0CCD98
:1047A00002212000009101F03EFC0136C7E707B06E
:1047B000F0BDC046D44F0020010301006004010099
:1047C0006A050100F7B50500214C2249200001F0DF
:1047D000E4FAE86B07F036FD022602000B000096B3
:1047E000200001F017FC1C4F2000390001F0E6FA10
:1047F0001A49200001F0D1FA286C07F023FD009639
:1048000002000B00200001F005FC1549200001F01A
:10481000D5FA1449200001F0C0FA286807F012FD0B
:1048200000960B000200200001F0F4FB390020008C
:1048300001F0C4FA0C49200001F0AFFAE96A0A223B
:10484000200001F00CFB0949200001F0B7FAF7BD88
:10485000D44F002097050100A6050100A90501001D
:10486000B8050100BB050100C5050100D205010026
:10487000012110B50023FF240D4A494202618261E3
:10488000026282620263821C016081638360D4875A
:104890004164C16452320331137053705174937484
:1048A000D37413750232C3660367137010BDC0461C
:1048B000FFC99A3B0B00413B052B02D83739080052
:1048C00070470B000800613B3038052BF8D857398A
:1048D000F5E700200A2210B50B781C00303C092CAB
:1048E00004D85043C01801313038F5E710BD03003B
:1048F00070B5040056331D7857342D2D00D01C00A0
:104900002100FFF7E6FF6423584323781A00303A6A
:10491000092A01D80134F8E72E2B0DD16378303BFA
:10492000DAB2092A08D80A225343C018A378303BC8
:10493000DAB2092A00D8C0182D2D00D1404270BD2E
:10494000F8B5050056352900FFF7C3FF64210600BE
:1049500004F02CFE124C4C432B781A00303A092AF2
:1049600001D80135F8E72E2B0DD10A270D48013566
:104970002B78303BDAB2092A05D843433900E418D2
:1049800004F08EFDF3E73000642104F089FD064D4C
:1049900006214543E01C04F083FD2818F8BDC046FD
:1049A000A08601001027000040420F000878002870
:1049B00005D01378834202D101310132F6E7704706
:1049C000F8B5030055331D780400002D49D05978FF
:1049D000FFF770FF23005733050019782000FFF719
:1049E00069FF23002D01543328181B78C0B283427D
:1049F00031D1230068331D78002D1BD02200703286
:104A0000138801331380A36C6364236DE364230074
:104A100065331B78002B0FD0012B0BD1636823600B
:104A2000E368A36063692361E369A361E36AA36246
:104A3000636B23632800F8BD636A221D23626368E9
:104A4000236063692361E369A361D28FA31CDA87C2
:104A5000E36BA363EEE772342388002501332380E0
:104A6000E8E70300060066331F786536002F14D18F
:104A700007005637424A3900FFF798FF0123002804
:104A800009D0404A39002000FFF790FF002801D1EB
:104A90003570CFE702233370CCE730780228C9D0D5
:104AA000210056310B78002BC4D040013843013827
:104AB0002828BFD804F0D6FC15232B32374D525985
:104AC0005EBEBEBEBEBEBEBEBEBEBEBEBEBEBEBE66
:104AD000BEBEBEBEBEBEBEBE151D232B32373E437C
:104AE00048002000FFF703FF606000F0EBFDA064CA
:104AF000A0E7413B5A425341683423709AE72000B3
:104B0000FFF71EFF606100F0DDFD206592E7532B8B
:104B100000D08FE763695B4263618BE72000FFF79A
:104B20000FFFE06186E7572B00D083E7E3695B4224
:104B3000E3617FE72000FFF7DAFEE0627AE720001A
:104B4000FFF7D5FE606375E72000FFF7C2FEE06067
:104B500070E730229A429B415B42CDE7080007F0A4
:104B600065FC0434C0B2E08764E72000FFF7BFFEB5
:104B7000E0635FE72000FFF7BAFE60625AE7C046D5
:104B8000E4050100EA050100F8B506000700C36E60
:104B9000040001330D00C36667365537242923D03E
:104BA00018D80A2901D00D292BD1337800200E2BDB
:104BB00005D8E318563318702000FFF701FF66345C
:104BC00023782A3D01332370002333706B425D410B
:104BD0003D70F8BD2A29E8D02C2912D102005432A8
:104BE00013784B401370E0E7230000200222663365
:104BF0003070123B9874683418705A743870207092
:104C0000E7E733780D2B04D85A1CE318563332707B
:104C10001D703878002804D1543423785D40257005
:104C2000D7E70020D5E770B504001D00002901D0AA
:104C300003690B60002A01D0A3691360002D07D01F
:104C4000E06C431C03D000F03DFDE36CC01A28600B
:104C500070BD70B504001D00002901D083680B6091
:104C6000002A01D023681360002D07D0606C431C1C
:104C700003D000F027FD636CC01A286070BD0000EF
:104C8000F7B50F001600694601AAFFF7CCFF0F4DDC
:104C9000009CAC4216D0200007F068FA00220C4BB2
:104CA00006F04EF807F020FB3860AC420CD00198BB
:104CB00007F05CFA0022064B06F042F807F014FBFE
:104CC0003060F7BD0348EFE70248F9E7FFC99A3BB8
:104CD00080842E4100007A4430B5094D094CAB6800
:104CE0005B035B0F9B001C590460AB6801619BB2C6
:104CF00043606343A4008360C460426130BDC0462A
:104D000000400041F4050100F7B580261A4D0191DD
:104D10006F6803333E439B086E60002B2BD0174E09
:104D20002E802E7DF107FCD51E000768991BBF0859
:104D30008F4219D9002E17D0FF2117788C433C439E
:104D40000F4957780C403F023C439778013E3904A5
:104D50000C4F2740D478BFB20F43240601993C433F
:104D600010C101910432E0E7074B2B802B7DDB075C
:104D7000FCD53300D1E7F7BD0040004144A5FFFF5B
:104D8000FF00FFFFFFFF00FF04A5FFFF044B054AE4
:104D90004908D9611A801A7DD207FCD57047C046F0
:104DA0000040004102A5FFFF70B504000D00160091
:104DB000E36829002000B34205D2FFF7E7FFE3686C
:104DC000ED18F61AF4E7FFF7E1FF70BD10B510001B
:104DD0001A0007F07DFB10BD70B5040008000D003F
:104DE00008F0C2FA2368020029005B682000984797
:104DF00070BD802210B504005200002107F071FB45
:104E0000200010BD70B50E0090B015001C000029E8
:104E100010D040220021684607F063FB3200194998
:104E2000684608F081FA6946174800F0B6FF64202A
:104E300000F07EFC002D10D040220021684607F0D3
:104E400050FB2A001149684608F06EFA69460E4880
:104E500000F0A3FF642000F06BFC002C10D0402277
:104E60000021684607F03DFB22000949684608F02A
:104E70005BFA6946044800F090FF642000F058FC9B
:104E800010B070BD0D08010000490020220801008B
:104E900036080100F0B585B002913649050003924D
:104EA0001E0008F068FA002856D0053007F0BEFA58
:104EB00030803149280008F05EFA0026B04242D026
:104EC000C379471D203B5A42534102339C46300070
:104ED00062464243BE5CBB1859783300303BDBB2BC
:104EE0000192092B0DD933003200373B413ADBB236
:104EF000052A06D923003400613C052C01D8573E11
:104F0000F3B20C00303CE4B2092C05D90C00413C52
:104F1000052C25D83739CCB21B01039AE318DBB234
:104F2000904201DA029A1354019B013063441A0043
:104F3000FB5C222B1BD1BA1853780D2B17D1937819
:104F40000A2B14D106B2802200215200280007F05B
:104F5000C8FA300005B0F0BDFF235B423380A8E7FC
:104F60000E00613E1C00052ED6D85739D3E700B29B
:104F7000AEE7C046470701004D07010010B50248E3
:104F8000FFF737FF10BDC04600480020962110B53E
:104F90008901024801F0D2F910BDC0460049002045
:104FA000F7B51C000191170000F08CFBFA239B0061
:104FB0006343060000240093BC420DDA0A4D28002A
:104FC00001F01CFB002807D0280001F0DBFA019A51
:104FD000631C10551CB2F1E700F074FB009B801BB2
:104FE0009842E9D92000FEBD00490020F7B506002F
:104FF0000D0001921F00002913D00A4C200001F07F
:10500000FDFA002803D0200001F0BCFAF5E70649BC
:10501000200000F0C2FE3B00019A29003000FFF79B
:10502000BFFFF7BD0049002014060100F7B50600D8
:105030000D0001921F00002913D00A4C200001F03E
:10504000DDFA002803D0200001F09CFAF5E70649BC
:10505000200000F0A2FE3B00019A29003000FFF77B
:105060009FFFF7BD0049002003080100F0B585B09F
:105070000193002305000C00170002AA93801D4E27
:10508000300001F0BBFA002803D0300001F07AFABA
:10509000F5E71949300000F080FEE719BC420AD05C
:1050A0002278164903A808F03FF903A91148FFF731
:1050B00093FE0134F2E71249300000F06EFE8022C8
:1050C00000215200280007F00CFA8022019B5200B8
:1050D00029002800FFF764FF29000A4800F05DFE60
:1050E0000949280008F047F9431E9841C0B205B0AD
:1050F000F0BDC04600490020740701008007010090
:1051000088080100D44F00208507010070B5040015
:1051100000F0D8FAFA2305009B005C43094E3000EA
:1051200001F06CFA002807D0300001F02BFAC1B270
:10513000054801F036FBF1E700F0C4FA401BA0423D
:10514000ECD970BD00490020D44F002010B50549AE
:10515000054800F022FE0120FFF7D8FF642000F090
:10516000E7FA10BDB20701000049002070B5040045
:10517000150000292AD11749174800F00EFE01201A
:10518000FFF7C4FF642000F0D3FA80220021520010
:10519000200007F0A6F980222B00520021002000F9
:1051A000FFF7FEFE21000D4800F0F7FD0C4920003E
:1051B00008F0E1F803000020834206D109492000ED
:1051C00008F0D9F843425841C0B270BD0129D6D188
:1051D0000549D1E7DE06010000490020D44F002038
:1051E000F80601000B070100E806010010B50029D0
:1051F0000AD10749074800F0D0FD0120FFF786FFDC
:10520000642000F095FA10BD0129F6D10249F1E7BA
:1052100053070100004900206307010010B507484B
:10522000002909D0064900F0B8FD0120FFF76EFF04
:10523000642000F07DFA10BD0249F4E70049002027
:1052400093070100A207010010B50748002909D003
:10525000064900F0A2FD0120FFF758FF642000F08E
:1052600067FA10BD0249F4E7004900202807010051
:105270003707010070B58AB00E1C150000212022EE
:1052800002A807F02EF91049301C04F087FE05F043
:1052900091F90A2100B204F073FA301C0CB205F047
:1052A00089F9230002B20095084902A808F03CF8E9
:1052B00002A9074800F071FD0120FFF727FF6420D5
:1052C00000F036FA0AB070BD00002041EE07010080
:1052D0000049002070B58AB0161C0D002022002164
:1052E00002A807F0FEF8301C05F064F90F4904B27B
:1052F000301C04F053FE05F05DF90A2100B204F001
:105300003FFA09B223002A00009102A8084908F0D8
:105310000BF802A9074800F040FD0120FFF7F6FE58
:10532000642000F005FA0AB070BDC04600002041BC
:10533000D90701000049002070B58AB0161C0D0085
:105340002022002102A807F0CCF8301C05F032F929
:105350000F4904B2301C04F021FE05F02BF90A219C
:1053600000B204F00DFA09B223002A00009102A84D
:10537000084907F0D9FF02A9074800F00EFD0120F7
:10538000FFF7C4FE642000F0D3F90AB070BDC04638
:10539000000020411F0601000049002010B5074809
:1053A000002909D0064900F0F8FC0120FFF7AEFE05
:1053B000642000F0BDF910BD0249F4E70049002067
:1053C000C0070100CC07010010B50C0088B02022F6
:1053D0000021684607F085F822000849684607F072
:1053E000A3FF6946064800F0D8FC0120FFF78EFEB7
:1053F000642000F09DF908B010BDC0468C08010083
:105400000049002030B50D0089B0204C2049002A09
:105410001DD02049012A1AD01F49022A17D01F493E
:10542000032A14D01E49042A11D01E49052A0ED081
:105430001D49062A0BD01D49072A08D01C49082AF5
:1054400005D01C49092A02D00A2A03D11A49200092
:1054500000F0A3FC0120FFF759FE642000F068F97A
:1054600020220021684607F03CF82A0013496846CC
:1054700007F05AFF6946200000F08FFC0120FFF77B
:1054800045FE642000F054F909B030BD0049002009
:10549000300601003E0601004C0601005A060100DC
:1054A0006E0601007C0601008D0601009B060100CE
:1054B000A9060100B7060100C5060100D3060100D8
:1054C00070B50E0090B015001C00002913D04022CA
:1054D0000021684607F005F832001E49684607F0CB
:1054E00023FF69461C4800F058FC0120FFF70EFE20
:1054F000642000F01DF9002D13D0402200216846E1
:1055000006F0EFFF2A001549684607F00DFF6946CF
:10551000114800F042FC0120FFF7F8FD642000F084
:1055200007F9002C13D040220021684606F0D9FF6D
:1055300022000B49684607F0F7FE6946064800F06E
:105540002CFC0120FFF7E2FD642000F0F1F810B020
:1055500070BDC0464A0801000049002060080100F3
:105560007608010010B5024801F04DF810BDC046A4
:105570000049002010B5024801F045F810BDC046B2
:105580003C4B002010B5024801F03DF810BDC0466C
:10559000784D0020F7B501240325194F194938002B
:1055A00000F094FD1849194800F090FD1849194879
:1055B00000F08CFD1849194800F088FD1849194879
:1055C00000F084FD184E1949300000F07FFD3900CD
:1055D0000095230001940022154800F083FF31005C
:1055E000009501941E231F22124800F07BFF0095B6
:1055F00001942C232D2205490F4800F073FFF7BDBD
:10560000B44F002000080042000C0042B84F0020B8
:1056100000100042BC4F002000140042C04F002088
:1056200000180042C44F0020C84F0020001C004258
:10563000004900203C4B0020784D0020FEE7000090
:10564000034B10B51B68002B00D0984710BDC04617
:10565000CC4F002070B50F490F4CA14204D100F08F
:105660008DF800F059FBFEE70C4D00238D42F6D07B
:10567000CA18E818A24205D3094B8242EFD0094963
:10568000002204E0006804331060F1E704C38B4299
:10569000FCD3E4E700000020900200204C1501003C
:1056A00090020020C855002010B500F064F80028D2
:1056B00001D100F055F810BD014B18607047C0468D
:1056C000CC4F0020014B18687047C046D04F0020D7
:1056D000F7B51348012284461249134C8E6863685B
:1056E00005689B0E1340019288686268019F920EC4
:1056F0003A4067463F6893420ED1BD420CD1864284
:105700000AD35B19FA254868AD00861B07486B432E
:105710007043000DC018FEBD3D0013000600E3E716
:10572000D04F002010E000E000ED00E055550000F3
:1057300070B5041E10D0FFF7CBFF050000F01AF87B
:10574000FFF7C6FF054B401B9842F7D9FA23013CEF
:105750009B00ED18002CF3D170BDC046E70300009C
:1057600010B5034A13680133136000F07BFC10BDD1
:10577000D04F002070470020704700001E2270B5F7
:1057800046484749436893431C3A13434360082300
:105790008C6923438B61434C434B9C829C8A14430A
:1057A0009C82DC681442FCD00124404A14701578B5
:1057B000254203D055786DB2002DF8DB01249460AA
:1057C000547864B2002CFBDB394C5460547864B2DA
:1057D000002CFBDB8224E4015480547864B2002C5A
:1057E000FBDB02249C840E34DD682542FCD0314C66
:1057F000DC621024DD682542FCD09D8C2E4C2C43AD
:105800009C841024DD682542FCD002249D8C8026D7
:105810002C439C844024DD683542FCD0DD68254261
:10582000F9D01024DD682542FCD00024946054781F
:1058300064B2002CFBDB214C5460547864B2002C21
:10584000FBDB1C6A1E4D2C4080251C621C6AAC438D
:105850001C62032393601B4B536053785BB2002B95
:10586000FBDB0023FF240B72174A4B728B72CB7247
:10587000164B1A60164B174A1B6811689A065B0193
:10588000C90E2340520F12020B431343124A1385D1
:10589000802342681343436070BDC046004000410E
:1058A000000400400C06000000080040000C00400E
:1058B00001050100B905FF7D040A0000000703008F
:1058C000FFFCFFFF03060100006CDC020400002067
:1058D000246080002060800000400042FA212D4BAF
:1058E00010B51868890003F0DBFD2B4B0138984296
:1058F0004FD82A492A4A4860C020136A00061B0272
:105900001B0A0343136200238B6007330B60802163
:10591000136A09061B021B0A0B431362FC22214B6C
:10592000196A0A431A62FF22196A12020A431A62AA
:10593000A022196AD2020A431A621B4B1C005A7831
:1059400052B2002AFBDB194A5A80194B1A00597EC1
:10595000C9090129FBD0C821890099800521D97086
:10596000537EDB09012BFBD0C02300205B011361B8
:10597000907000F049F863785BB2002BFBDB0D4BB5
:105980000D4A6380D379DB09012BFBD0412353708F
:1059900010BDFEE704000020FFFFFF0010E000E064
:1059A00000ED00E000040040000C00401E4000003C
:1059B0000040004221400000004800420F4B3022CE
:1059C00018600F490F4B0A2809DD9888904398808A
:1059D000243A0A605A7ED209012AFBD0704708286F
:1059E00006DD98889043202202439A800A22F0E73D
:1059F000988802439A800822EBE7C0460C000020FA
:105A000008000020004000421F4900B50B004A7EFC
:105A1000D209012AFBD001380A282FD803F02CFD27
:105A20001B2E2E2E2E2E062E2E2411001A691749FB
:105A30000A400F211A615A788A43110001220A4351
:105A400010E01A6911490A400F211A615A788A43F5
:105A500011000322F3E71A690C490A400F211A6169
:105A60005A788A435A7000BD1A6908490A400F21C2
:105A70001A615A788A4311000222E0E7F02219697C
:105A800012050A43F3E7C04600400042FFFFFFF063
:105A900010B50400052800D80E340121200000F0C4
:105AA000C3F80E2C0DD1284B1900DA79D209012A3E
:105AB000FBD002201A7882431A70CB79DB09012BC4
:105AC000FBD022490B004A7ED209012AFBD01822C2
:105AD00062431F4CA418207C1F240A692040A24363
:105AE00002430A615A7ED209012AFBD002221978A8
:105AF0000A431A705A7ED209012AFBD00222197B6E
:105B00000A431A7301221A765A7ED209012AFBD05F
:105B10000222197B0A431A731A7ED207FCD5588BCE
:105B200080B25A7ED209012AFBD002211A788A4318
:105B30001A705A7ED209012AFBD0064B1A68064B0E
:105B4000196800F067F810BD0048004200400042AC
:105B50009C0801000C00002008000020182310B54C
:105B600008244343134AD0180457013412D00124A7
:105B70009A5643689C4003290CD808000E49D2016C
:105B80005218D318403303F077FC0210060B0221A1
:105B90001970546010BD0621197054609461F9E7C2
:105BA0000621197054605461F4E702211970946061
:105BB000F0E7C0469C080100004400411823F0B5FE
:105BC00008245843114A13181C5701341BD00126CE
:105BD00035005F688356BD400D4ADB019A18906816
:105BE00005420BD10C00601E8441D219403210785E
:105BF00034400336A400B04320431070044A9B187D
:105C0000002901D15D61F0BD9D61FCE79C080100A8
:105C100000440041914202D002D98A1AD040704714
:105C2000521A9040FBE700001822424370B52D4EF7
:105C30000300B218127A52B2140001320ED0481C7E
:105C400000240C280AD803F017FC071F1F1F1F1F72
:105C50001F1F1F0B0B0B0B0001246442200070BDA3
:105C6000092905D100211800FFF778FF0024F5E786
:105C70000A2901D10839F6E700240B29EED10A39A7
:105C80001800FFF76BFFE9E7182201205343F218D1
:105C9000F3565568144ADB016C089B18C9B22840BA
:105CA0001C1900280ED00F20303422780901024040
:105CB00011434122C9B25B192170403319780A435C
:105CC0001A70D3E722000F26303214785B19B443E0
:105CD0002143117041224033197804000A431A709D
:105CE000BCE7C0469C08010000440041704700002A
:105CF00010B5FCF70BFAFCF74BFAFFF73BFD034B33
:105D0000002BF8D000E000BFF5E7C046000000001F
:105D100010B5FFF7EDFF000010B5FFF7DFFD06F04F
:105D20009FFBFFF7E3FF0120FFF702FD054C20007A
:105D300001F0A6F8200001F029F9FFF7E9FF0020A3
:105D400010BDC046F04F0020F7B506000D000C0056
:105D50008B180193019B671B9C4207D03368217805
:105D60001B683000984701340028F3D13800FEBD8D
:105D700070B5040008000D0007F0F6FA2368020071
:105D800029005B682000984770BD10B50B1E02D03B
:105D9000FFF7EEFF0300180010BD10B5FFF7F5FF89
:105DA00010BD10B503681B68984710BD10B50249B7
:105DB000FFF7DEFF10BDC0468908010070B5040082
:105DC000FFF7E3FF05002000FFF7F0FF401970BD6B
:105DD000F0B58BB06B461500002205330600DA776C
:105DE0000800012D00D80A2509AC290003F0DEFBCC
:105DF000CAB2130037330700DBB2092902D81300F7
:105E00003033DBB2013C2370002FEED12100300093
:105E1000FFF7BBFF0BB0F0BDF8B506000C00151E78
:105E200004D10368C9B21B689847F8BD0A2A0CD18F
:105E300000290BDA2D21FFF7B4FF614207002A0089
:105E40003000FFF7C5FF3818EFE7D2B2210030006D
:105E5000FFF7BEFFE9E710B5FFF7DEFF10BD70B535
:105E60000400FFF7D9FF05002000FFF79FFF40194E
:105E700070BD10B5002A04D10368C9B21B689847E9
:105E800010BDD2B2FFF7A4FFFAE710B5FFF7F1FF9C
:105E900010BD70B50400FFF7ECFF05002000FFF710
:105EA00085FF401970BD0000F7B51E0008AB1B78D8
:105EB00031000193050033001000170006F004F9CB
:105EC0004B49002814D10122740064085242494B06
:105ED0003800210006F0F8F800280FD10122454BC8
:105EE00052423800210003F071FC002806D14249DB
:105EF0002800FFF73DFF04002000FEBDE0223F4BDD
:105F000012063800310003F06BFC002801D03C4938
:105F1000EEE7E0223B4B12063800310003F04CFC68
:105F20000028F4D1002200233800310003F044FCA3
:105F3000041E07D02D212800FFF733FF8023040023
:105F40001B06F618002300202F490093019B009A9E
:105F5000934208D02D4B002204F0F2FE009B013347
:105F6000DBB20093F2E733003A0004F0CDFB0F0000
:105F7000060003F083FC0A22019001002800FFF7CD
:105F800027FF009B0419002BB6D0019806F028F9D2
:105F900002000B003000390005F04EFD06000F0036
:105FA00028001B49FFF7E4FE2418009B013BDBB2ED
:105FB0000093FF2BA0D0154B00223000390005F0D4
:105FC000C9FA0F00060003F059FC0A2201000190F3
:105FD0002800FFF7FDFE2418019806F001F90200E1
:105FE0000B003000390005F027FD06000F00DCE74C
:105FF000EC0C0100FFFFEF7FF00C0100FFFFEF4111
:10600000F40C0100FFFFEFC10000E03F000024405E
:10601000F80C010037B51D00069BDBB200932B0086
:10602000FFF742FF3EBD37B519000400069B200074
:10603000DBB200930B00FFF737FF05002000FFF7EE
:10604000B5FE40193EBD0000014B18607047C046C8
:10605000100000200122024B52421A607047C046D5
:1060600010000020124A1368591C20D0013B136015
:10607000002B1CD172B60F4B01221900187D104263
:10608000FCD02022188BFF3202431A830A4ADA61BD
:106090000A4A1A8001230A7D1A42FCD0BFF34F8FAF
:1060A000074B084ADA60BFF34F8FC046FDE77047E1
:1060B00010000020004000410210000002A5FFFF78
:1060C00000ED00E00400FA05100070470160704721
:1060D0009446F0B59E1E721E964162460568920770
:1060E0002F6836063A4332432A60072505AC2478E8
:1060F0000068A4012940214342680024022B00D0FB
:106100005C03114321434160F0BD30B5C0250368F5
:10611000AD031C6812052A402243C0240904A402CE
:1061200021401143196003685A6814435C6030BD14
:106130000123026811680B43136003681A68D207D1
:10614000FCD4DA69D207F9D47047022302681168D7
:106150000B4313600268D3699B07FCD47047036844
:106160001A7ED20702D41A7E9207FCD5704700220D
:1061700003685A8370470368187E4007C00F704752
:106180000368187EC0097047802302685B42117E55
:106190000B43137670470368588B8007C00F704716
:1061A00002230268518B0B43538370470368187EA8
:1061B000C007C00F70470368188DC0B270470368EE
:1061C0001A7ED207FCD589B20120198570470122B9
:1061D00003689A757047012203681A7570470000BA
:1061E0000368104A934213D00F4A934212D00F4AC9
:1061F000934211D00E4A934210D00E4A93420FD0D0
:1062000001200D4A4042934201D1063040B270470E
:106210000020FBE70120F9E70220F7E70320F5E77C
:106220000420F3E700080042000C00420010004286
:106230000014004200180042001C0042F8B5FFF7AD
:10624000CFFF00282CDBC3001C48FF22C018052309
:106250000479C35603201840C0008240C021D243B5
:106260008140002B1DDB1F2501201D40C026A840BA
:10627000134D7600A851C0269B089B005B19B60001
:106280009F593A401143995128603F23234080246D
:10629000E4011C430B4B5C805A7852B2002AFBDBB2
:1062A000F8BD0F200340083B07489B089B001B18C4
:1062B000D86902401143D961E7E7C046FC0C0100F0
:1062C00000E100E0000C004000ED00E0F8B5040043
:1062D0000F0016001D00FFF7B1FF2000FFF728FF99
:1062E0001C21BB000B4071072268090C0B43136093
:1062F000842322689375012F1AD11021012E00D01A
:1063000008390C4B69431868C00003F0C9F807222C
:10631000216802408B895203DB04DB0C13438B8121
:10632000226803049089DB0C400B400318439081E2
:10633000F8BDC046040000200120704710B5036876
:10634000014A1B6A984710BD130400000300FC3388
:10635000D9699A69914203D0DB69C018007D704702
:1063600001204042FBE710B504000069FFF7E0FEA2
:1063700022000023FC329361D36186229200A4188C
:106380006360A36010BDF0200140303948424841AD
:106390007047F0231B011940802306209B0099427F
:1063A0000AD00133FF330130994205D080230238EF
:1063B0005B00994200D0002070470F200140002070
:1063C000012903D00239481E8141481C7047000052
:1063D0008923F0B5182685B002919B000400C05CAB
:1063E000330008214343324D1700EB185956FFF78D
:1063F0001BFC304B0821E05C33004343EB1859563B
:10640000FFF712FC2C4BE25C0393022A09D11133F3
:10641000E05CFF2805D008214643AE197156FFF70E
:1064200003FC8A26B600A05DFF2819D00121FFF7E2
:1064300095FB1822A35D21495A43AB56AD18DB01E9
:1064400058188B21890060501D4901225B188C214E
:106450008900635069688A408D21890062501A6002
:106460000122029B11002069FFF730FF3900200054
:10647000FFF78FFF390005002000FFF79EFF39006E
:1064800006002000FFF77FFF3300009029002069FD
:106490000122FFF71DFE0B4B2069E25C039BE15CD0
:1064A000FFF733FE2069FFF750FE05B0F0BDC04690
:1064B0009C0801002502000027020000184400414A
:1064C0001444004126020000802210B5040052004E
:1064D000002106F006F823000022FC335A60200059
:1064E0009A6010BDF7B51D0008AB1B78040000933F
:1064F00009AB1B781600019300234360FA239B002D
:106500008360114B0F00083303601430FFF7DCFF8A
:1065100020001D30FF30FFF7D7FF89236A469B001C
:106520002761E654094B1278E554094B2000E254E8
:106530006A46084B1279E2548A22293BFF3B9200BB
:10654000A3541032A354FEBD2C0D010025020000FF
:1065500026020000270200000300FC3359689A68F5
:10656000914204DB5A689868801AFF307047986837
:106570005B68C01A0138F9E710B51D30FF30FFF72E
:10658000EBFF10BD030070B5FC33D9699A690400B4
:1065900091421AD0DA698218157DDA690132D2B2D5
:1065A000DA618A239B00E35CFF2B0CD020001430BF
:1065B000FFF7D2FF0A2806DD8C238D229B00920074
:1065C000E358A2581A60280070BD01256D42E8E723
:1065D0000300FC3358689B68C01A01D50130FF30B6
:1065E000704710B5040020001D30FF30FFF7F0FFAA
:1065F0000028F8D12069FFF7B2FD10BD10B51430A6
:10660000FFF7E6FF10BD10B504000069FFF7C3FDFA
:10661000002805D02069FFF7CEFD2069FFF7C0FDF7
:106620002069FFF7A8FD002820D02069FFF7C3FDEF
:106630002200FC329369D1690133DBB28B4203D073
:1066400091696118087593618A239B00E35CFF2BB5
:106650000CD020001430FFF77FFF092806DC8B23C5
:106660008D229B009200E358A2581A602069FFF720
:106670009DFD00281AD020001D30FF30FFF7A8FF35
:10668000002822D086239B00E31899685A6891421B
:1066900018D08E219A684900A218515C9A6801327C
:1066A000D2B29A60C9B22069FFF789FD2069FFF76D
:1066B00067FD002805D02069FFF766FD2069FFF718
:1066C00056FD10BD01214942ECE72069FFF783FD2B
:1066D000ECE7000070B5040000690D00FFF766FDEF
:1066E00000283ED1FF2686239B00E3185A6899684C
:1066F000013232408A4223D1EFF31083DB070DD4FD
:106700001E4B5B68DB05DB0DEDD0103B5BB2002B55
:106710000DDB9B08C0331A4A9B009B582069FFF78A
:1067200045FD0028DFD02000FFF76DFFDBE70F22DB
:106730001340083B9B08134A9B009B181B68EDE71E
:106740005A68013216409A68964205D08E215A68DE
:106750004900A21855545E602069FFF738FD0120FA
:1067600070BD20001D30FF30FFF732FF0028B9D187
:1067700029002069FFF723FDF1E7C04600ED00E0A6
:1067800000E100E01CED00E010B51C00431A029887
:10679000511A001B584302F00DFF001910BD3F2095
:1067A000704713B56B460268D971073354681900F6
:1067B0000122A04716BD000010B50221006900F0BB
:1067C00009FD034B1B6801335A1E9341181810BD75
:1067D0006400002010B50321006900F011FD10BD18
:1067E00010B50321006900F0D9FC10BD10B5054CAF
:1067F00023685A1C04D103685B6998470300206032
:10680000180010BD64000020074B0200186810B586
:10681000411C03D0012252421A6010BD02211069AE
:1068200000F0D8FDF9E7C0466400002010B5130061
:10683000094A0400D079C0B2002805D1627E002A3E
:1068400002D00123636006E00A002069032100F002
:10685000CFFD0028F5D010BD1800002010B503783A
:106860004222023303700249024800F06DFE10BD5F
:1068700020000020F04F002010B50178020043787E
:106880000020A12908D1212B05D10722164917483C
:1068900000F05AFE012010BD2129FCD1202B13D17C
:1068A00007221149114800F0EFFC96220E4BD2004E
:1068B000196891420ED10124D87904400AD1FA20F6
:1068C000FFF7C2FB0020E6E7222B06D19278064BA9
:1068D000DA71EAE7FFF7BEFBF4E7232BDBD152883E
:1068E000034B1A60D7E7C04618000020F04F002085
:1068F000140000200123437670470000FA22002193
:10690000054B92009A60054A596008321A60044AA1
:1069100019761A617047C046D44F0020600D0100FF
:10692000F04F00207047704770B50F26CB1D01391E
:1069300002003240D5B22C0000093034092A00DDB3
:1069400007341C70013B8B42F2D170BDA02110B501
:106950000400490001F00BF9200010BDF8B503292F
:1069600008D1304B8000C058002802D003689B68D3
:106970009847F8BD822919D1C3B22B4D5A01AA18E4
:1069800091692A4C80010C40C02189052143916105
:106990002749083340187021506128685B011A5C50
:1069A0008A43110030220A431A54E2E70029E0D159
:1069B000C026C1B21C4C4B01E3189A681B4DB605AA
:1069C0002A4032439A601B4A800182185A600A00AA
:1069D0000727246808325201115DB9430F000121D5
:1069E000394311559F6912493D4040182E439E611D
:1069F00058617020115D8143080010210143115539
:106A000099680D48A2180840802149030143996004
:106A10009968890B89039960402311790B4313719D
:106A2000A7E7C046F44F0020A8540020FFFFFF8FC7
:106A30001C500020DC510020FF3F00F0EFF31083DA
:106A400003600123436072B670470368002B02D1D4
:106A500062B6BFF36F8F7047F7B50500FC35EB6981
:106A60000600002B18D196277F00C45D6846FFF70B
:106A7000E5FF019BE4B2013B02D3F45DE4B2FAE727
:106A800068460193FFF7E1FF002C01D10020FEBD15
:106A9000E86AAB6AC01AFAE76846FFF7CFFF9E22A2
:106AA0000024019B5200013B02D3B45CE4B2FAE73C
:106AB00068460193FFF7C9FF002CE7D0E86BAB6B8A
:106AC000E8E7000030B54468FC3043698069DBB218
:106AD0005A01A2189168094D800429400009014318
:106AE000916091680833890B8903916022685B018A
:106AF000D318402219790A431A7130BDFF3F00F0C4
:106B0000F7B50500FF21FC356A6943680A401B6838
:106B1000083252019A18D3790400DB0754D50126B4
:106B2000D6716B6962680B405B01D318286A9A685A
:106B30009204920C002822D1EA62EA6A002A40D02C
:106B40006A6B2E6268465A60FFF778FF9E273E21E7
:106B5000019B7F00013BFF315A1C2ED09622520030
:106B6000A654E25D581ED2B2002A05D0665468468B
:106B70000193FFF76AFFF7BD62540300ECE7EA6395
:106B8000EA6B002A1DD000222A626A6A68465A60AF
:106B9000FFF754FF96273E21019B7F00013BFF3109
:106BA0005A1C0AD09E225200A654E25D581ED2B250
:106BB000002ADBD162540300F2E768460193FFF735
:106BC00044FF2000FFF77EFF63681A686B69DBB241
:106BD00008335B01D3187F22DA71CCE7F7B50700E1
:106BE00068463C00FFF72AFF0026FF22019BFC3489
:106BF000013B0DD3E0682169884204DBE668206927
:106C0000961B3618F4E72669E168761A013EEFE72D
:106C100068460193FFF719FFE3696846002B52D1DC
:106C2000FFF70CFF9621019B4900013B5A1C0CD039
:106C30007D5C5A1EEDB2002D05D168460193FFF729
:106C400004FF2800FEBD1300F0E76846019300250D
:106C5000FFF7FBFEFF21A36AB54214D0E26A9A4215
:106C600011D95A1CA262626AD3181878E3682269A3
:106C70000133C0B20B40934203D0E268BA181072DD
:106C8000E3600135E7E7E26A9A42DAD10023A362C2
:106C90000133E36168469624FFF7D0FE64003E228C
:106CA0000021019BFF32013B581CC6D03955B85C0E
:106CB0005E1E002805D0B95438000193FFF702FF8B
:106CC000EDE73300F0E7FFF7B9FE9E21019B490095
:106CD000013B5A1C06D07D5C5A1EEDB2002DACD093
:106CE0001300F6E7684601930025FFF7AEFEFF218B
:106CF000A36BB54202D0E26B9A421DD8E26B9A4276
:106D00009FD100236846A363E3619E24FFF796FEAC
:106D100064003E220021019BFF32013B581C00D140
:106D20008BE73955B85C5E1E002817D0B95438007F
:106D30000193FFF7C7FEECE75A1CA263626BD318FE
:106D40001878E36822690133C0B20B40934203D044
:106D5000E268BA181072E3600135C9E73300DDE775
:106D600010B50400FFF73AFF2300FC331969DA6815
:106D7000914203D01B69E418207A10BD01204042E3
:106D8000FBE710B50400FC34FFF728FFE068236937
:106D9000C01A01D50130FF3010BDF0B585B00192A9
:106DA00000910500FFF71AFF02A8FFF747FE012038
:106DB0000024FF26039B40425A1E531C1FD02B0069
:106DC000FC3301998C4218D2D9681F69C91B01D5BF
:106DD0000131FF31002910D01969DF688C460100AC
:106DE000BC4506D019691F69691801373740097A0F
:106DF0001F61009F39550134E3E7013ADDE702A83E
:106E00000392FFF722FE200005B0F0BD37B56B46B8
:106E1000DC1D00230D0020002370FFF71FFD2B68F1
:106E20001818286000F042FE210000F0FBFD2B68DE
:106E30001818286020783EBD02220B0010B593433D
:106E40000C00012B0BD10D4B08341B6864011C197D
:106E5000802321795B420B432371E27110BD00F066
:106E600025FE210000F012FE0028F7D0034B083465
:106E70001B6864011C197F23E371EFE7A85400200D
:106E800070B50024364B012105001A201C70FEF756
:106E900065FE01211A20FEF791FE324B01211920D7
:106EA0001C70FEF75BFE01211920FEF787FE2023F0
:106EB0002D4A0F20D1690B43D36101222B490B7856
:106EC00013430B702A4B19788143197006211C78E3
:106ED0002143197027490C7822430A701A7802401E
:106EE0001A70602219780A431A70234B234A5A8079
:106EF0005A78D209FCD12248FEF7DEFB214C7F26CE
:106F0000200000F0E5FD200000F0FAFD0C20082331
:106F10002168CA7882431343CB7003212268D37857
:106F20008B4301390B43D3702268137833401370BD
:106F3000042322681678334313702268C12413890E
:106F4000A40083431048138103591B021B0A0351F9
:106F50008023036013781943012311702B7070BDD7
:106F600011500020105000200004004058440041FF
:106F70003C44004159440041000C004006400000E0
:106F8000B9790000A854002000E100E00078002852
:106F900010D00121084B1B681A898A431A810822E4
:106FA000198B0A431A830422198B0A431A8300227D
:106FB000024B1A607047C046A8540020A05400201D
:106FC00010B50F4A93699B0B9B03936113680222D0
:106FD000FF331A729879823A02439A711A7A9207A9
:106FE000FCD57F24074A2140937A0800A343190067
:106FF000802301439172917A5B420B43937210BDDF
:10700000A85400200050004110B50B790C00002B53
:107010000CD10800FFF730FC002801D0012010BD82
:10702000094A93699B0B9B039361F7E700F03EFDD0
:10703000210000F01BFD0028F0D1034A93699B0B4F
:107040009B039361EBE7C046A8540020F8B50D0000
:10705000832A19D1CBB2434C5A01A21891694248F4
:10706000AD010840C0218905014391613F49206875
:107070006D187021083355615B011A5C8A43110059
:1070800040220A431A54F8BD022A65D1384B8A00BF
:10709000D058002802D003689B699847A020400080
:1070A00000F09AFC80270600324B7F0003602D4BD6
:1070B000002143603A00083005F013FA34009622AC
:1070C0000023FC345200E360A36223616561E36145
:1070D000A7612362E362B3541032A363E363B35442
:1070E0003E223800FF32B35405F0DEF9606238000A
:1070F00005F0DAF92B006063FF201A4903405A01BA
:107100008A189168184F08330F40C0218905394308
:1071100007279160134A5B011168AD005A5CBA43BE
:10712000170003223A435A546169736801404901C8
:107130005918636A4B60736862691B6802405201A8
:107140009B1801221B18997A30000A439A72FFF7A4
:10715000B9FC074BEE5096E711002800FFF7FEFB45
:1071600091E7C046A8540020FFFFFF8F1C5000206D
:10717000F44F0020900D010070B505000124064B6E
:10718000A200D258002A06D0210028000134FFF7BF
:107190005DFF0A2CF3D170BD680000200B4BCAB212
:1071A0000B488901C9185301C318596199690832FC
:1071B000890B89039961036852019A180223D371DC
:1071C0005179823B0B4353717047C0461C500020DD
:1071D000A8540020084B8A00D05810B5002803D0CE
:1071E0000368DB68984710BDC9B2044B49015918C0
:1071F00088688004800CF6E7F44F0020A854002033
:1072000010B50C00FFF7E6FF00280CD0064BE4B2E7
:107210001B68083464011C19802362795B421343A4
:1072200063710223E37110BDA854002070B5CBB286
:10723000124A13485C01890189180219516091684A
:10724000104D08330D40802189022943402591606B
:107250009168890B8903916001685A018A1816792F
:107260003543157195796D06FCD55B01C918CB794D
:10727000DB07FCD500198068C0B270BDDC5100206E
:10728000A8540020FF3F00F070B5140040220B4BC3
:107290000D001B68FF3359790A435A710021FFF72B
:1072A000C5FFA04200D9200000230549A34203D016
:1072B000CA5CEA540133F9E770BDC046A854002007
:1072C000DC51002010B5C9B20B484901421893683F
:1072D0009B049B0C3F2B0BD99468403B9B04A40B55
:1072E0009B0CA4032343936041188868C0B210BD6F
:1072F00093689B0B9B03F6E7A8540020F0B51C0095
:107300002F4B85B01B6806000D000192002B54D056
:107310002C4F3978C9B2002902D11920FEF74EFC52
:1073200064233B70284BAA00D058002808D003687B
:1073300022005B68019998470400200005B0F0BD69
:1073400029003000FFF746FF844204D929003000AD
:10735000FFF740FF040029003000FFF7B3FF0121D1
:10736000EBB21A4F03935B010293029A3B680198B8
:107370009B18FF335A7A0A435A72154BA901C91850
:10738000220005F0A5F8002CD7D029003000FFF727
:1073900021FF0028D1D14021039B3A6808335B01CB
:1073A000D3181879014319710121D971029BD3189F
:1073B000FF339A7A0A439A72BFE701246442BCE71A
:1073C000A054002010500020F44F0020A8540020AA
:1073D000DC51002013B56B46DC1D22000123FFF7B2
:1073E0008DFF012801D1207816BD01204042FBE726
:1073F000F0B51E003A4B85B01B680F000192002BC0
:107400003FD08023DB019E423BD8364C2178C9B265
:10741000002902D11A20FEF7D1FB64230025237036
:10742000314BBA01D3180293002E2CD02F4B1B687E
:107430000393FF233B401C0000930834039B64012B
:107440001C19A379DB0921D0294B2A49186802F0BD
:1074500027F8294B1721584302F022F8274BE279ED
:10746000920713D4DA5D002A01D10138F7D2012244
:10747000DA55009B5A011D4B9B189A69920B920397
:107480009A6101256D42280005B0F0BD00221B4B1A
:107490003400DA55402E00D9402422000199029888
:1074A00005F016F8009BA1045A01104B890C9B189B
:1074B000029A2D195A619A69361B920B92030A435C
:1074C0009A61009B039A08335B01D3180222DA7198
:1074D0005979823A0A435A71019B1B190193A3E718
:1074E000A0540020115000201C500020A85400205F
:1074F0000400002040420F007011010013500020D2
:1075000070B50D001C000D4BAE01F61811003000D7
:10751000220004F0DDFFEDB209496D014D196E61E5
:10752000AB69084A20001340AB61AB69A2049B0B16
:10753000920C9B031343AB6170BDC0461C500020EE
:10754000A8540020FF3F00F0F7B5104B01901B78C6
:107550000F001500002B0CD10D4B16001C78002CD1
:1075600009D00C4E0C4834882018641904F0B0FF80
:1075700034802800FEBD002EFBD03A1933000021D4
:107580000198FFF7BDFF2418361AF4E79C5300203A
:107590009D5400209E5400209D530020F8B50020EB
:1075A00000AF0E001500012A27D9D31D6A46DB085B
:1075B000DB00D31A9D46080005F0D6FE6C46032377
:1075C000022200210130400020706370AA420DD2D7
:1075D000307800280AD0531CDBB20136A0549D42FB
:1075E00003D00232E154D2B2F0E72A00210004486D
:1075F000FFF7AAFF431E9841C0B2BD46F8BDC04682
:10760000F04F0020F0B50024012685B0184B0F0084
:1076100069461E7005000094FFF7F8FB154B01A9A1
:107620000B806A3BFF3BCB716E3B0B72009B8C71F6
:1076300009334B800E4B4E7108711C703A00092FB4
:107640000FD00D4F09223E700C4E2800009434805C
:10765000FFF77AFF69462800FFF7D8FB3288084910
:107660003C702800FFF770FF012005B0F0BDC04658
:107670009C530020090200009D5400209E540020CD
:107680009D530020F0B5CF7893B005000E00022F77
:1076900009D1C9882D48FFF7B5FF441EA041C4B2E7
:1076A000200013B0F0BD00F001FA310000F0CEF977
:1076B000002803D0C417241AE40FF1E7012F0FD1DB
:1076C000F288082A0AD02249112A13D8D2B2002AF5
:1076D00010D02800FFF738FF0124E1E71D49F5E746
:1076E0000400032FDCD1B378002B05D1F2881A49AE
:1076F000032AEBD90A78ECE7022B06D1B2791749B5
:107700002800FFF74BFF0400CAE7012B02D1B27932
:107710001349F5E7032BC3D1124B01A91868FFF7F2
:1077200003F9114B03A91868FFF7FEF80F4B05A9E1
:107730001868FFF7F9F80E4B07A91868FFF7F4F877
:107740006B460533DC77B27901A9D9E7F04F002009
:10775000D30D0100E50D0100C20D0100B00D0100C7
:10776000C60D01000CA0800040A0800044A0800055
:1077700048A0800037B5040048780D000B2810D8C9
:1077800001F07AFE061B0F2B0F40456D494C6669D0
:10779000097801AA002906D1022311802000FFF7F1
:1077A000AFFE01203EBD002313802E4B1B78012B22
:1077B00000D1137002230021F0E78A780023012A08
:1077C00003D101AA1380284BF0E7264A1370274AF9
:1077D00093699B0B9B039361E3E78D78012D06D1A1
:1077E0000021214B01AA1D7011702B00D6E701204A
:1077F000002DD7D11B4B1D4A187093699B0B9B031F
:107800009361CFE789782000FFF7DAFBC9E7200012
:10781000FFF738FFC6E70123154ACCE70B780020B5
:10782000DB06BFD12000FFF7A7FC2A20AA78104B67
:10783000FF301A6002230D4A11680C5C23434A246E
:107840000B54FF340B5D2938FF3803430B55D4E745
:107850000123084AAFE78A78064B1A60B7E7002091
:10786000A0E7C046125000201A500020A854002063
:10787000A0540020A4540020474BF7B51C78060004
:10788000002C7CD1454D2B689B8B1B070ED521000E
:107890002000FFF763F82A6810231100FF31887A6F
:1078A00003438B723E4B1C60082393832B689A8B97
:1078B00052071FD504229A833A4A1378002B0AD024
:1078C0001378013BDBB213701378002B03D1012135
:1078D0001A20FEF773F9344A1378002B0AD0137874
:1078E000013BDBB213701378002B03D10121192067
:1078F000FEF764F92B68FF331A7AD2061ED51022E0
:107900001A72597930320A435A716023274930007C
:107910000A781A4234D1FFF72DFF2B68FF33002875
:1079200031D08022997952420A439A711A7A5206CA
:1079300004D540221A72597A0A435A720124270048
:107940002B681B8CA343DBB20193019B23413B4279
:1079500012D023002A6808335B01D318DA79D207E2
:1079600002D4DB799B0707D5114BA200D058002821
:107970000DD003681B6898470134082CE5D1F7BD8A
:10798000FFF742FBC9E720210A4A9171CEE7E1B235
:107990003000FFF751FAEFE79D540020A854002073
:1079A000A05400201150002010500020DC51002075
:1079B000F44F0020FF50004110B50248FFF75CFF74
:1079C00010BDC046F04F0020014B024A1A607047BC
:1079D000A85400200050004110B504F065FD10BD12
:1079E00010B504F06BFD10BD10B50200EFF310816F
:1079F00072B60A4B1868002801D109481860186847
:107A00008218EFF30884A24204D21A60002900D140
:107A100062B610BD01204042F8E7C046AC550020D8
:107A2000C855002070B50E0000254468002C0BD00E
:107A3000236831005B6820009847002802DB2D187E
:107A4000E468F3E701256D42280070BD70B50D00B4
:107A50004468002C08D0236829009B6820009847C0
:107A6000002802D1E468F4E7200070BD70B50D0075
:107A70004468002C08D0236829001B682000984720
:107A8000002802D1E468F4E7200070BD70B50D0055
:107A90004468002C08D023682900DB682000984740
:107AA000002802D1E468F4E7200070BD0121054AF6
:107AB00010B5136804480B4003D1044C43600480A4
:107AC000116010BDB0550020B45500200204000024
:107AD00070B50400012304CC0500117820000B438D
